:020000040800F2
:10000000D0B901201D8C0008118400081384000859
:1000100015840008178400081984000800000000F7
:100020000000000000000000000000001B84000829
:100030001D840008000000001F84000821840008BF
:100040005D8C0008618C0008658C0008698C0008D4
:100050006D8C0008718C0008758C0008798C000884
:10006000898400087D8C0008818C0008858C00083C
:10007000898C00088D8C0008918C0008958C0008F4
:10008000998C00089D8C0008A18C0008A58C0008A4
:10009000A98C0008AD8C0008B18C0008B58C000854
:1000A000B98C0008BD8C0008C18C0008C58C000804
:1000B000C98C0008CD8C0008D18C0008D58C0008B4
:1000C000D98C0008DD8C0008E18C0008E58C000864
:1000D000E98C0008ED8C0008F18C000831840008E0
:1000E000BF840008F58C0008F98C0008FD8C00081E
:1000F000018D0008058D0008098D00080D8D000890
:10010000118D0008158D0008198D00081D8D00083F
:10011000218D0008258D0008298D00087B790008B5
:100120002D8D0008318D0008358D0008398D0008AF
:100130003D8D0008418D0008458D0008498D00085F
:100140004D8D0008518D0008558D0008598D00080F
:100150005D8D0008618D0008235E0008658D000834
:10016000698D00086D8D0008718D0008758D00087F
:10017000798D00087D8D0008818D00080000000049
:10018000858D0008898D00088D8D0008918D0008EF
:10019000958D0008998D00089D8D000800000000D5
:1001A000A18D0008A58D0008A98D00082DE9F84350
:1001B00004005FF000097F239F225821002001F0F6
:1001C00098FB00270026300080B2282830D20E206D
:1001D0000500280080B2AE2828DA310089B2BC20A0
:1001E000414304EB0100290089B2405C8046DFF8FE
:1001F000F8054146C9B24246D2B2C2F3C402D202A5
:1002000092B2120A52EA5112390089B242547F1C4A
:100210004146C9B25FEAC80212F0E00252EAD102D6
:10022000390089B242547F1C6D1CD2E7761CCAE7A4
:100230000821104801F05BFD4FF44850DFF8941599
:100240000860DFF8A405DFF890150860DFF88C057A
:10025000016851F001010160DFF8840500680006C3
:10026000FAD420220421DFF87C0502F088F8BDE8EA
:10027000F1830000000C0240F0B5002500240426A4
:1002800000231D00ADB2282D29D200252C00250009
:10029000ADB2BC2D21D2BC2517009C461FFA8CFCA8
:1002A00005FB0CFC8444A6461FFA8EFE1CF80EC00B
:1002B000BFB21FFA8CFC674501D2FF2700E0002780
:1002C0009C461FFA8CFC05FB0CF50D44A4461FFA56
:1002D0008CFC05F80C70641CD9E75B1CD1E7F0BD01
:1002E0002DE9F84384B004000D000126272E80F08C
:1002F000448101200700BB2F80F03D81BC2101FB20
:1003000006F02044384410F8BB2C01FB06F02044D2
:10031000384410F8BD0C121A01FB06F02044384492
:1003200010F8010C121A01FB06F020443844407802
:1003300052FA80F201FB06F02044384490F8BB00EA
:10034000121A01FB06F02044384490F8BD0052FA1E
:1003500080F00090E94601FB06F02044384490F814
:10036000BB2001FB06F02044384410F8BD0C121AE3
:1003700001FB06F02044384410F8BC0C121A01FBB3
:1003800006F02044384490F8BC0052FA80F201FB99
:1003900006F02044384410F8BB0C121A01FB06F09A
:1003A0002044384490F8BD0052FA80F0C9F80400A7
:1003B00001FB06F02044384410F8012C01FB06F044
:1003C0002044384410F8BC0C121A01FB06F02044FB
:1003D00038444078121A01FB06F02044384490F863
:1003E000BC0052FA80F201FB06F02044384410F8B9
:1003F000BB0C121A01FB06F02044384490F8BB00F5
:1004000052FA80F0C9F8080001FB06F02044384495
:10041000427801FB06F02044384410F8BC0C121A54
:1004200001FB06F02044384410F8010C121A01FBBD
:1004300006F02044384490F8BC0052FA80F201FBE8
:1004400006F02044384410F8BD0C121A01FB06F1E6
:1004500004EB0100384490F8BD0052FA80F0C9F86E
:100460000C00009801F0BAFF0090D9F8040001F0E8
:10047000B5FFC9F80400D9F8080001F0AFFFC9F8CA
:100480000800D9F80C0001F0A9FFC9F80C00012000
:100490008046B8F1040F0ADA009859F8281088420B
:1004A00002DA59F82800009018F10108F1E7BC20A1
:1004B00000FB06F12144394411F8BD1C00FB06F293
:1004C00022443A4412F8BC2C52FA81F100FB06F2A5
:1004D00022443A4412F8BB2C51FA82F100FB06F296
:1004E00022443A4412F8012C51FA82F100FB06F240
:1004F0002244D25D51FA82F100FB06F222443A44D2
:10050000527851FA82F100FB06F222443A4492F802
:10051000BB2051FA82F100FB06F222443A4492F8E1
:10052000BC2051FA82F100FB06F222443A4492F8D0
:10053000BD2051FA82F1C9F80C109DED000AB8EE09
:10054000C00AD9ED030AF8EEE00AB2EE081AC0EECE
:10055000810AF4EE400AF1EE10FA05D500FB06F030
:1005600028440021C15504E000FB06F02844FF2187
:10057000C1557F1CBFE6761CB8E605B0BDE8F08328
:100580002DE9F14F2DED088BADF5007D00215FF0D9
:10059000000C002200279FED8EBA0026DFED8CBAFA
:1005A000002003009BB2B3F5807F08DA00236D467C
:1005B00086461FFA8EFE25F81E30401CF1E7002308
:1005C000180080B228282AD200200400200080B21F
:1005D000BC2822D2BC256846DDF820E298461FFAE6
:1005E00088F805FB08F8C644A0461FFA88F81EF8EC
:1005F00008E0DDF8208299461FFA89F905FB09F524
:100600004544A0461FFA88F815F8085030F81550F0
:100610006D1C20F81E50641CD8E75B1CD0E75FF00F
:100620000008404680B2B0F5807F09DA684645464A
:10063000ADB230F81500002802D118F10108F0E73A
:10064000FF254046AE4680B21FFA8EFE704509D2A5
:100650006846AE461FFA8EFE30F81E00002801D113
:100660006D1EEEE72800C64680B21FFA8EFE70456A
:1006700002D12800C0B2A5E0404680B2401CAE4680
:100680001FFA8EFE704502D14046C0B29AE05FF07C
:10069000000A40462B0084469BB21FFA8CFC63453F
:1006A00009D36B4684461FFA8CFC33F81C301AFAC7
:1006B00083FA401CEEE75FF00009434628001A0069
:1006C00080B292B290420AD368461A0092B230F8D1
:1006D0001220180080B200FB02995B1CEEE7BFEE0F
:1006E00000AAC34658462A0080B292B290425BD21A
:1006F00068465A4692B230F81220B618BAEB060293
:1007000000EE102AF0EE40BA00EE106AB8EE400A91
:1007100000EE90AAF8EE600A80EE200AB0EE408A61
:10072000B8EE6B0A00EE90AAF8EE600A80EE200A9E
:10073000F0EE408A5A4692B230F81220584680B203
:1007400000FB0277B9EB070000EE100AB0EE40BAEA
:1007500000EE107AB8EE400A00EE906AF8EE600AF9
:1007600080EE200AB0EE409AB8EE4B0AF8EE6B0A23
:1007700080EE200AF0EE409A28EE280A79EE690A07
:1007800020EE200A79EE690A20EE200AF0EE40AA57
:10079000B4EE6AAAF1EE10FA03D5B0EE6AAA584692
:1007A00001001BF1010B9DE7C9B2080001F01AFE20
:1007B0005FF06632DFF8F83401F022FE01F034FF1A
:1007C0001430C0B20DF5007DBDEC088BBDE8F28F92
:1007D00000000000746402407C64024070640240C7
:1007E000085001400064024080D3002030B4010072
:1007F0000020002300240022100080B2282814D2F8
:1008000000200300180080B2BC280CD21500ADB245
:10081000BC20454301EB05001D00ADB2405D54FA1C
:1008200080F45B1CEEE7521CE6E77020B4FBF0F0AE
:10083000A025B0FBF5F0C0B230BC70472DE9F04107
:1008400002000124200080B227286CD2012003007E
:10085000180080B2BB2864D241F23935BC26200092
:1008600080B2704308441F00BFB2A4461FFA8CFC3C
:1008700006FB0CFC94449E461FFA8EFEF4441CF8C2
:10088000BDCC05FB0CFC5FEA2C4C00F807C0200037
:1008900080B2704301EB00079C461FFA8CFC2000DD
:1008A00080B2704308449E461FFA8EFE10F80EE098
:1008B000200080B27043104498461FFA88F84044E4
:1008C00010F8BC8C41F6B17000FB08F85FEA2848CC
:1008D00058FA8EF007F80C00200080B270430844EC
:1008E0001F00BFB2A4461FFA8CFC06FB0CFC8C4414
:1008F0009E461FFA8EFE1CF80EC0A6461FFA8EFEFC
:1009000006FB0EF616449E461FFA8EFE764416F837
:10091000BB6C05FB06F52D1455FA8CF5C5555B1C13
:1009200096E7641C8EE70125280080B2272877D23D
:1009300001200300180080B2BB286FD241F6B176C7
:10094000BC24280080B2604308441F00BFB2AC46FC
:100950001FFA8CFC04FB0CFC8C449E461FFA8EFE96
:100960001CF80EC0AE461FFA8EFE04FB0EFE964427
:1009700098461FFA88F8C6441EF801EC06FB0EFEE6
:100980005FEA2E4E5EFA8CFC00F807C0280080B2A9
:10099000604301EB00079C461FFA8CFC280080B2E4
:1009A000604308449E461FFA8EFE10F80EE02800B1
:1009B00080B26043104498461FFA88F810F8088007
:1009C00043F2464000FB08F85FEA284858FA8EF0E8
:1009D00007F80C00280080B2604308441F00BFB233
:1009E000AC461FFA8CFC04FB0CFC8C449E461FFAA0
:1009F0008EFE1CF80EC0AE461FFA8EFE04FB0EF4EF
:100A000014449E461FFA8EFE7444647806FB04F676
:100A1000361456FA8CF4C4555B1C8BE76D1C83E7C7
:100A20000124200080B2272879D201200300180079
:100A300080B2BB2871D241F23935BC26200080B289
:100A4000704308441F00BFB2A4461FFA8CFC06FB8B
:100A50000CFC8C449E461FFA8EFE1CF80EC0A64667
:100A60001FFA8EFE06FB0EFE964498461FFA88F883
:100A7000C6449EF8BBE005FB0EFE5FEA2E4E5EFA12
:100A80008CFC00F807C0200080B2704301EB000727
:100A90009C461FFA8CFC200080B2704308449E469E
:100AA0001FFA8EFE10F80EE0200080B27043104452
:100AB00098461FFA88F8404490F8BC8041F6B1701F
:100AC00000FB08F85FEA284858FA8EF007F80C0097
:100AD000200080B2704308441F00BFB2A4461FFA32
:100AE0008CFC06FB0CFC8C449E461FFA8EFE1CF808
:100AF0000EC0A6461FFA8EFE06FB0EF616449E4654
:100B00001FFA8EFE764496F8BD6005FB06F52D149F
:100B100055FA8CF5C5555B1C89E7641C81E7BDE877
:100B2000F0812DE9F0410025002601221700BFB217
:100B3000272F57D201273B001F00BFB2BB2F4FD238
:100B4000BC2794461FFA8CFC07FB0CFC8C449E4689
:100B50001FFA8EFE5FF000080CF80E805FF0000CAC
:100B600066465FF0000C6446A4461FFA8CFCBCF19C
:100B7000090F20DADFF83CC1A6461FFA8EFE5CF8AA
:100B80002EC01CFA82FC07FB0CFC8444DFF828E131
:100B9000A0461FFA88F85EF828E01EFA83FE1CF8CB
:100BA0000EC06546AC465FFA8CFCBCF1FF0F00D16D
:100BB000761C641CD8E7B4465FFA8CFCBCF1060FC7
:100BC0000CDB94461FFA8CFC07FB0CF70F449C4689
:100BD0001FFA8CFC4FF0FF0E07F80CE05B1CABE734
:100BE000521CA3E7BDE8F0812DE9F0410025002665
:100BF00001221700BFB2272F57D201273B001F0049
:100C0000BFB2BB2F4FD2BC2794461FFA8CFC07FB08
:100C10000CFC8C449E461FFA8EFE4FF0FF080CF829
:100C20000E805FF0000C66465FF0000C6446A44640
:100C30001FFA8CFCBCF1090F20DADFF878C0A64659
:100C40001FFA8EFE5CF82EC01CFA82FC07FB0CFC1F
:100C50008444DFF864E0A0461FFA88F85EF828E0D4
:100C60001EFA83FE1CF80EC06546AC465FFA8CFC8B
:100C7000BCF1000F00D1761C641CD8E7B4465FFAC3
:100C80008CFCBCF1040F0CDB94461FFA8CFC07FBB8
:100C90000CF70F449C461FFA8CFC5FF0000E07F81F
:100CA0000CE05B1CABE7521CA3E7BDE8F081000041
:100CB0006666E63F24000020000000202DE9F04198
:100CC00002000025002600270123180080B22728F3
:100CD00080F0C78001200400200080B2BB2880F093
:100CE000BE805FF0BC0C180080B20CFB00F010441A
:100CF000A6461FFA8EFE704410F8BB0C9E461FFAE3
:100D00008EFE0CFB0EFE9644A0461FFA88F8C644E1
:100D10009EF801E05FEA4E0E5EFA80F09E461FFAF2
:100D20008EFE0CFB0EFE9644A0461FFA88F8C644C1
:100D30009EF8BDE050FA8EFE180080B20CFB00F069
:100D40001044A0461FFA88F8404410F8BD0CBEEBD2
:100D5000000E180080B20CFB00F01044A0461FFAF1
:100D600088F8404410F8010CBEEB400E180080B229
:100D70000CFB00F01044A0461FFA88F8404490F89D
:100D8000BB00BEEB000E7546002D00D56D4218006D
:100D900080B20CFB00F01044A6461FFA8EFE704491
:100DA00090F8BB009E461FFA8EFE0CFB0EFE96448A
:100DB000A0461FFA88F8C6449EF8BCE05FEA4E0ED3
:100DC0005EFA80F09E461FFA8EFE0CFB0EFE9644E5
:100DD000A0461FFA88F8C6449EF8BDE050FA8EFE81
:100DE000180080B20CFB00F01044A0461FFA88F8EF
:100DF000404410F8BD0CBEEB000E180080B20CFB96
:100E000000F01044A0461FFA88F8404410F8BC0CCB
:100E1000BEEB400E180080B20CFB00F01044A04660
:100E20001FFA88F8404410F8BB0CBEEB000E764663
:100E3000002E00D5764270190700B7F5807F01DBE0
:100E4000FF200700180080B20CFB00FC01EB0C0037
:100E5000A4461FFA8CFC00F80C70641C3CE75B1C79
:100E600033E7BDE8F08100002DE9F84F04000D00E4
:100E70005FF000085FF000090126300080B22728EB
:100E800080F0A48001200700380080B2BB2880F0E9
:100E90009B80BC21300080B2484320443A0092B28B
:100EA000104410F8BB2C300080B2484320443B0073
:100EB0009BB2184410F8BC0C121A300080B24843A0
:100EC00020443B009BB21844407812EB40023000B3
:100ED00080B2484320443B009BB2C05CB2EB40026E
:100EE000300080B2484320443B009BB2184490F845
:100EF000BD0052FA80F2300080B2484320443B00EB
:100F00009BB2184490F8BC00121A52109046300060
:100F100080B2484320443A0092B2104410F8010CC9
:100F2000320092B24A4322443B009BB2D25C520050
:100F300052FA80F0320092B24A4322443B009BB204
:100F40001A44527850FA82F2300080B2484320446A
:100F50003B009BB2184490F8BB00121A300080B2DC
:100F6000484320443B009BB2184490F8BC00B2EBCD
:100F70004002300080B2484320443B009BB21844FA
:100F800090F8BD00121A52109146300080B201FB59
:100F900000F105EB010ABB461FFA8BFB09FB09F0C8
:100FA00008FB080000EE100AB8EEC00A00F0B9FB1A
:100FB000DFED070A30EEC00ABDEEC00A10EE100ADF
:100FC0000AF80B007F1C5FE7761C56E7BDE8F18F3F
:100FD00000007F432DE9FF4F83B004000020029002
:100FE0005FF0000B5FF0020A0125280080B227287D
:100FF00080F0C08001200600300080B2BB2880F065
:10100000B780BC21280080B248432044320092B20D
:10101000104410F8BB2C280080B248432044330011
:101020009BB2184410F8BC0C121A280080B2484336
:10103000204433009BB21844407812EB4002280051
:1010400080B24843204433009BB2C05CB2EB400204
:10105000280080B24843204433009BB2184490F8E3
:10106000BD0052FA80F2280080B248432044330089
:101070009BB2184490F8BC00121A52100292280039
:1010800080B248432044320092B2104410F8010C60
:101090002A0092B24A43224433009BB2D25C5200EF
:1010A00052FA80F02A0092B24A43224433009BB2A3
:1010B0001A44527850FA82F2280080B24843204401
:1010C00033009BB2184490F8BB00121A280080B27B
:1010D0004843204433009BB2184490F8BC00B2EB64
:1010E0004002280080B201FB00F104EB0100310056
:1010F00089B2084490F8BD00121A521093465FF06E
:10110000A009DFF86C06290089B209FB01F1084447
:10111000310089B2019100900298029A0BFB0BF109
:1011200002FB001001F09CFA41EC100B01F0AAFA4E
:1011300051EC100B01F078FA0099019A8854DFF80D
:101140003406290089B209FB01F98144300080B2DC
:1011500000909DED020AF8EEC00A00EE10BAB8EE5B
:10116000C00A00F0A9FA009909F80100761C43E7CB
:101170006D1C3AE70121080080B2272880F01A810F
:1011800001200700380080B2BB2880F01181A02226
:10119000DFF8E0050B009BB2534318443B009BB2C1
:1011A000C05C002807D0022800F0838042D30328C7
:1011B00000F0BE80FAE0DFF8B835080080B2504396
:1011C0001844BC461FFA8CFC10F80CC0080080B212
:1011D00050431844BE461FFA8EFE704490F801E05A
:1011E0005046C0B2BEEB000EF44518DB080080B2DA
:1011F00050431844BC461FFA8CFC10F80CC0080081
:1012000080B250431844BE461FFA8EFE704410F858
:1012100001EC5046C0B2BEEB000EF44509DA0800FE
:1012200080B202FB00F203EB02003A0092B200230C
:101230008354BBE0DFF83835080080B250431844CF
:10124000BC461FFA8CFC10F80CC0080080B250435A
:101250001844BE461FFA8EFE704410F89FEC5046AC
:10126000C0B2BEEB000EF44518DB080080B250435C
:101270001844BC461FFA8CFC10F80CC0080080B261
:1012800050431844BE461FFA8EFE704490F89FE00B
:101290005046C0B2BEEB000EF44509DA080080B239
:1012A00002FB00F203EB02003A0092B200238354E7
:1012B0007CE0DFF8BC34080080B250431844BC46E0
:1012C0001FFA8CFC10F80CC0080080B25043184480
:1012D000BE461FFA8EFE704410F8A0EC5046C0B215
:1012E000BEEB000EF44518DB080080B250431844F2
:1012F000BC461FFA8CFC10F80CC0080080B25043AA
:101300001844BE461FFA8EFE704490F8A0E0504686
:10131000C0B2BEEB000EF44509DA080080B202FB51
:1013200000F203EB02003A0092B2002383543DE046
:10133000DFF83C34080080B250431844BC461FFA22
:101340008CFC10F80CC0080080B250431844BE4614
:101350001FFA8EFE704410F8A1EC5046C0B2BEEBEE
:10136000000EF44518DB080080B250431844BC4618
:101370001FFA8CFC10F80CC0080080B250431844CF
:10138000BE461FFA8EFE704490F8A1E05046C0B2EF
:10139000BEEB000EF44509DA080080B202FB00F251
:1013A00003EB02003A0092B2002383547F1CE9E66B
:1013B000491CE0E60122100080B2272880F07881E5
:1013C00001200700380080B2BB2880F06F81A02187
:1013D000DFF89C33100080B248431844BC461FFA23
:1013E0008CFC10F80C009DF814C060450BD20499D9
:1013F00013009BB2BC20434301EB0300390089B2C8
:10140000FF23435450E19DF8180094461FFA8CFCCA
:1014100001FB0CFC9C44BE461FFA8EFE1CF80EC05D
:1014200060450BD2049913009BB2BC20434301EBEF
:101430000300390089B20023435435E1BC209446AF
:101440001FFA8CFC00FB0CFCA444BE461FFA8EFE67
:10145000F4449CF8BBC0E046C44696461FFA8EFE94
:1014600000FB0EFEA644B9461FFA89F9CE449EF849
:10147000BCE05FFA8CFCF4450CD294461FFA8CFC5D
:1014800000FB0CFCA444BE461FFA8EFEF4449CF8FC
:10149000BCC0E046C44696461FFA8EFE00FB0EFE18
:1014A000A644B9461FFA89F9CE449EF8BDE05FFA1A
:1014B0008CFCF4450CD294461FFA8CFC00FB0CFC0F
:1014C000A444BE461FFA8EFEF4449CF8BDC0E0461C
:1014D000C44696461FFA8EFE00FB0EFEA644B94691
:1014E0001FFA89F9CE441EF801EC5FFA8CFCF44532
:1014F0000CD294461FFA8CFC00FB0CFCA444BE46A4
:101500001FFA8EFEF4441CF801CCE046C446964611
:101510001FFA8EFE00FB0EFEA644B9461FFA89F99B
:101520001EF809E05FFA8CFCF4450BD294461FFAD2
:101530008CFC00FB0CFCA444BE461FFA8EFE1CF87B
:101540000EC0E046C44696461FFA8EFE00FB0EFE15
:10155000A644B9461FFA89F9CE449EF801E05FFA25
:101560008CFCF4450CD294461FFA8CFC00FB0CFC5E
:10157000A444BE461FFA8EFEF4449CF801C0E04627
:10158000C44696461FFA8EFE00FB0EFEA644B946E0
:101590001FFA89F9CE441EF8BDEC5FFA8CFCF445C5
:1015A0000CD294461FFA8CFC00FB0CFCA444BE46F3
:1015B0001FFA8EFEF4441CF8BDCCE046C4469646A5
:1015C0001FFA8EFE00FB0EFEA644B9461FFA89F9EB
:1015D000CE441EF8BCEC5FFA8CFCF4450CD2944669
:1015E0001FFA8CFC00FB0CFCA444BE461FFA8EFEC6
:1015F000F4441CF8BCCCE046C44696461FFA8EFE66
:1016000000FB0EFEA644B9461FFA89F9CE441EF827
:10161000BBEC5FFA8CFCF4450CD294461FFA8CFCB0
:1016200000FB0CFCA444BE461FFA8EFEF4441CF8DA
:10163000BBCCE0469DF818C0C6465FFA8EFEF44566
:1016400019D2DDF810C096461FFA8EFE00FB0EF090
:101650006044BC461FFA8CFC5FF0000E00F80CE002
:10166000100080B201FB00F103EB0100390089B2E8
:101670000023435418E04FF0FF0CDDF810E09146D2
:101680001FFA89F900FB09F07044BE461FFA8EFE6E
:1016900000F80EC0100080B201FB00F103EB010066
:1016A000390089B200F801C07F1C8BE6521C82E62B
:1016B00007B0BDE8F08F000080EE201ADFED271A9A
:1016C000B4EE611AF1EE10FA08DBDFED251AB4EE84
:1016D000611AF1EE10FA01D5002020E0DFED201AAA
:1016E000B4EE611AF1EE10FA08DBDFED1E1AB4EE6B
:1016F000611AF1EE10FA01D5012010E0DFED1A1A9F
:10170000B4EE611AF1EE10FA08D5DFED181AB4EE56
:10171000611AF1EE10FA01DB032000E00220C0B2F2
:10172000704781B0F0EE400AB6EE000A20EE801A53
:1017300010EE901A1048B0EB610000909DED000A89
:1017400061EE001AB7EE082A01EEC02A22EE000A66
:10175000F7EE001A81EE800A01B07047CF13D4BEB5
:10176000CD13D43E7A821A40CC13D4BE79821AC0EB
:1017700080470020808D0020865A375F10B5DFF843
:1017800070430121200000F0B2FA0221200000F095
:10179000AEFA1021200000F0AAFA052001F034F87A
:1017A0001021200000F0A7FA052001F02DF81021EB
:1017B000200000F09CFA0221200000F098FA052099
:1017C00001F022F80221200000F095FA112000F02B
:1017D00066F8142001F018F8B12000F060F8052038
:1017E00000F069F83C2000F066F83C2000F063F857
:1017F000B22000F054F8052000F05DF83C2000F025
:101800005AF83C2000F057F8B32000F048F80520C3
:1018100000F051F83C2000F04EF83C2000F04BF86E
:10182000052000F048F83C2000F045F83C2000F08E
:1018300042F8B42000F033F8032000F03CF83A20DE
:1018400000F02DF8052000F036F8202000F027F8F1
:10185000132000F024F8262000F021F8012000F0E9
:101860002AF8292000F01BF8362000F018F8702024
:1018700000F021F8002000F05BF810BD0100DFF857
:101880009C0302689207FAD5DFF894230B00DBB2C1
:1018900013600368DB07FCD51068C0B2704710B551
:1018A00004000821DFF8480200F025FA2000C0B249
:1018B000FFF7E4FF10BD10B504000821DFF8300287
:1018C00000F015FA2000C0B2FFF7D8FF10BD10B528
:1018D00004000821DFF8180200F009FA200080B2A5
:1018E000000AC0B2FFF7CAFF2000C0B2FFF7C6FF70
:1018F00010BDF8B504000D0016001F002A20FFF7E8
:10190000CEFF200080B2FFF7E2FF300080B2FFF789
:10191000DEFF2B20FFF7C3FF280080B2FFF7D7FFC1
:10192000380080B2FFF7D3FF2C20FFF7B8FFF1BDDE
:1019300070B504007F239F2200210020FFF7D9FF0C
:101940000025280080B2A0280DDA00200600300013
:1019500080B2802805DA200080B2FFF7B8FF761C3D
:10196000F5E76D1CEDE770BD2DE9F84304000D00AF
:10197000160000273800C0B2102832DA55FA87F373
:101980009BB2E21D92B255FA87F189B2200080B273
:10199000FFF7AFFFDFF88C023100C9B2090108443C
:1019A0003900C9B20844B0F50070007881460020C3
:1019B00080464046C0B2082811DA5FEAC97004D5F3
:1019C0004FF6FF70FFF783FF02E00020FFF77FFF75
:1019D0005FFA89F95FEA590918F10108E9E77F1C04
:1019E000C8E7BDE8F1832DE9F84F05000E001700A8
:1019F00098460A9C5FF000094846C0B2102834DAC5
:101A000056FA89F39BB2EA1D92B256FA89F189B26D
:101A1000280080B2FFF76DFFDFF808023900C9B275
:101A2000090108444946C9B20844B0F5007000787D
:101A30008346002082465046C0B2082812DA5FEA88
:101A4000CB7004D5404680B2FFF741FF03E0200091
:101A500080B2FFF73CFF5FFA8BFB5FEA5B0B1AF18A
:101A6000010AE8E719F10109C6E7BDE8F18FF8B509
:101A700004000D00160000273800C0B2305C0028BA
:101A80000FD03800C0B2325CADB2290189B2380043
:101A9000C0B2C00010FA84F080B2FFF765FF7F1C6F
:101AA000EAE7F1BD2DE9FC4104000D0016001F001E
:101AB0005FF000084046C0B2305C002815D0BDF889
:101AC000200000903B009BB24046C0B2325CADB2F9
:101AD000290189B24046C0B2C00010FA84F080B239
:101AE000FFF781FF18F10108E4E7BDE8F38100008A
:101AF000000C02402DE9FC4104000D0016003000EE
:101B0000C0B2642190FBF1F08DF800003000C0B24B
:101B10000A2190FBF1F00A216F4690FBF1F201FBE4
:101B2000120078703000C0B20A2190FBF1F201FB84
:101B300012008DF802005FF000084046C0B2032892
:101B400013DA4046C0B23A5C3032D2B2ADB22901AB
:101B500089B24046C0B2401CC00010FA84F080B286
:101B6000FFF702FF18F10108E7E7BDE8F3812DE96F
:101B7000FC4104000D001600300080B242F21071EA
:101B800090FBF1F08DF80000300080B24FF47A71D4
:101B900090FBF1F00A216F4690FBF1F201FB12007D
:101BA0007870300080B2642190FBF1F00A2190FB44
:101BB000F1F201FB12008DF80200300080B20A2120
:101BC00090FBF1F00A2190FBF1F201FB12008DF87D
:101BD0000300300080B20A2190FBF1F201FB1200F9
:101BE0008DF804005FF000084046C0B2052813DA03
:101BF0004046C0B23A5C3032D2B2ADB2290189B2AD
:101C00004046C0B2401CC00010FA84F080B2FFF71A
:101C1000ABFE18F10108E7E7BDE8F3810850014089
:101C20000C500140E4630008F0B4066810F10C04A5
:101C3000276800252C00A4B2102C22D21C00EC40F6
:101C4000E4071CD55FF0030C2C00E4B264001CFA1E
:101C500004F4A64334002E00F6B2760011FA06F61C
:101C600026432C00E4B264001CFA04FC37EA0C079B
:101C70003C002F00FFB27F0012FA07F727436D1CCC
:101C8000D8E7066010F10C042760F0BC7047F0B490
:101C90000C00E4B2012C05D1041D24681C43051D71
:101CA0002C6004E0041D24689C43051D2C6010F189
:101CB0000804266800252C00A4B2102C12D21C00A7
:101CC000EC40E4070CD503272C00E4B26400A740E5
:101CD000BE4334002E00F6B2760012FA06F6264312
:101CE0006D1CE8E710F108042660F0BC704710F1A5
:101CF00018021160704710F128021160704702004D
:101D000012F110000068084201D0012000E000201C
:101D10007047F0B410F120031C6810F124031D6813
:101D2000002633009BB2082B12D21300F340DB07CE
:101D30000CD50F273300DBB29B009F40BC43230030
:101D40003400E4B2A40011FA04F41C43761CE8E762
:101D500008273B009BB2102B14D21300FB40DB077B
:101D60000ED50F2617F1F803DBB29B009E40B5435A
:101D70002B0017F1F805EDB2AD0011FA05F51D4382
:101D80007F1CE6E710F120031C6010F124031D60A6
:101D9000F0BC704710F12C021160704770B418222B
:101DA0000B00DBB202FB030310330C00E4B202FBB6
:101DB000040410342468640864001C600B00DBB267
:101DC00002FB0303103300241C600B00DBB202FB98
:101DD0000303143300241C600B00DBB202FB03037B
:101DE000183300241C600B00DBB202FB03031C331E
:101DF00000241C600B00DBB202FB03032033002431
:101E00001C600B00DBB202FB0302243221231360AF
:101E10000A00D2B2042A13DA10F1080213683D2432
:101E20000D00EDB206260A00D2B2C2F340029200C3
:101E300006FB0525AC40234310F10802136013E0B4
:101E4000091F10F10C0213683D240D00EDB20626A7
:101E50000A00D2B2C2F34002920006FB0525AC4054
:101E6000234310F10C02136070BC70470021016025
:101E700001214160002181600121C16000210161D7
:101E800001214161002181610021C16100210162C4
:101E9000704770B418240B00DBB204FB0303243337
:101EA0000D00EDB204FB050524352D6835F0040561
:101EB0001D600B00DBB204FB0303183315681D60C3
:101EC0000B00DBB204FB03031C3395681D600B00A1
:101ED000DBB204FB03031433D5691D600B00DBB2D6
:101EE00004FB030310331D68424B1D4013691D435F
:101EF000136955EA8305136A1D4393691D430B005B
:101F0000DBB204FB030310331D605368002B0ED1BA
:101F10000B00DBB204FB030310330E00F6B204FB2C
:101F200006061036366856F400761E601FE05368C9
:101F3000012B0ED10B00DBB204FB030310330E00A8
:101F4000F6B204FB06061036366836F400761E60DC
:101F50000DE00B00DBB204FB030310330E00F6B2FE
:101F600004FB06061036366856F400461E60D36839
:101F7000002B0ED10B00DBB204FB030310330E0069
:101F8000F6B204FB06061036366856F480661E600C
:101F90000DE00B00DBB204FB030310330E00F6B2BE
:101FA00004FB06061036366836F480661E605369F8
:101FB000002B0ED10B00DBB204FB030310330E0029
:101FC000F6B204FB06041034246854F480741C60D8
:101FD0000DE00B00DBB204FB030310330E00F6B27E
:101FE00004FB06041034246834F480741C6070BC54
:101FF000704700003F87FCFF10B418220B00DBB2D3
:1020000002FB030310330C00E4B202FB04021032A3
:10201000126832F480721A6010BC704710B4182233
:102020000B00DBB202FB030310330C00E4B202FB33
:1020300004021032126852F001021A6010BC70479C
:1020400010B418220B00DBB202FB030310330C00A8
:10205000E4B202FB040210321268520852001A6005
:1020600010BC704730B418240B00DBB204FB030330
:1020700010331B6833F060631500EDB253EA45631B
:102080000D00EDB204FB05041034236030BC704732
:1020900030B4802A0ED018230C00E4B203FB0404F1
:1020A00010340D00EDB203FB050310331B6813431E
:1020B00023600DE018230C00E4B203FB0404243475
:1020C0000D00EDB203FB050324331B6813432360AB
:1020D00030BC7047F0B505000B0014000021002251
:1020E0001E001800C0B2042880F29E802000012843
:1020F00008D0042823D008283ED0102859D0202802
:1021000074D090E02F689C465FFA8CFC5FF0060E5E
:102110001800C0B2C0F3400080000EFB0C0C14FA93
:102120000CFC1CEA07073A001F00FFB2182000FB56
:1021300007572437386810F08000010017E12F6836
:102140009C465FFA8CFC5FF0060E1800C0B2C0F32C
:10215000400080000EFB0C0C14FA0CFC1CEA070774
:102160003A001F00FFB2182000FB075710373868ED
:1021700010F002000100FAE02F689C465FFA8CFC28
:102180005FF0060E1800C0B2C0F3400080000EFBE6
:102190000C0C14FA0CFC1CEA07073A001F00FFB2F3
:1021A000182000FB07571037386810F004000100B2
:1021B000DDE02F689C465FFA8CFC5FF0060E18008D
:1021C000C0B2C0F3400080000EFB0C0C14FA0CFCF3
:1021D0001CEA07073A001F00FFB2182000FB075750
:1021E0001037386810F008000100C0E02F689C46E6
:1021F0005FFA8CFC5FF0060E1800C0B2C0F340001E
:1022000080000EFB0C0C14FA0CFC1CEA07073A00C9
:102210001F00FFB2182000FB07571037386810F076
:1022200010000100A3E0A2E0361F2000012808D022
:10223000042824D0082840D010285CD0202878D04A
:1022400095E0281D0768B4465FFA8CFC5FF0060E27
:102250003000C0B2C0F3400080000EFB0C0C14FA3A
:102260000CFC1CEA07073A001F00FFB2182000FB15
:1022700007572437386810F08000010077E0281DE8
:102280000768B4465FFA8CFC5FF0060E3000C0B2FF
:10229000C0F3400080000EFB0C0C14FA0CFC1CEA8E
:1022A00007073A001F00FFB2182000FB075710373E
:1022B000386810F00200010059E0281D0768B44694
:1022C0005FFA8CFC5FF0060E3000C0B2C0F3400035
:1022D00080000EFB0C0C14FA0CFC1CEA07073A00F9
:1022E0001F00FFB2182000FB07571037386810F0A6
:1022F000040001003BE0281D0768B4465FFA8CFC2F
:102300005FF0060E3000C0B2C0F3400080000EFB4C
:102310000C0C14FA0CFC1CEA07073A001F00FFB271
:10232000182000FB07571037386810F0080001002C
:102330001DE0281D0768B4465FFA8CFC5FF0060EAE
:102340003000C0B2C0F3400080000EFB0C0C14FA49
:102350000CFC1CEA07073A001F00FFB2182000FB24
:1023600007571037386810F010000100FFE7002A07
:1023700003D0002901D0012000E00020F0BD70B49E
:102380000B00DBB2042B13DA10F108031C680D00FC
:10239000EDB206260B00DBB2C3F340039B0006FB45
:1023A000053512FA05F52C4310F108031C6013E003
:1023B000091F10F10C031C680D00EDB206260B007E
:1023C000DBB2C3F340039B0006FB053512FA05F5AB
:1023D0002C4310F10C031C6070BC7047002848BFF0
:1023E0004042704750B1B0FA80F18840C91CC1F535
:1023F0008461090501EBD021400570470146704713
:1024000030B540F2FF7C1CEA11541DBF1CEA135585
:10241000644565453FE0641981EA030C6FF35F533F
:102420000CF0004C43F48013C90241F0004141EA32
:10243000505EC5021100A5FB020200284FF000000B
:10244000EEFB01204FF00001E3FB052118BF42F035
:102450000102401800214941E3FB0E01A4F580640C
:102460000D0302D292184041494154F1010470DD3C
:10247000450872F1004250F1000051EB0451A1F502
:10248000801102D441EA0C0130BD40F2FF7E4CEADB
:102490000E51002030BD0CEA1355644518BF654548
:1024A00081EA030C0CF0004C41D050EA410E1CBFF5
:1024B00052EA430E02E06146002030BD24422C4423
:1024C0001BD15FEA050EF6D0090302BF01460020CA
:1024D000AEF1140EB1FA81F5AEEB050401FA05FE7A
:1024E0000C35C5F1200100FA05F5C8404EEA000E92
:1024F0006FF35F5343F480139CE733F00043B3FA68
:1025000083F504BFB2FA82FE75440B3D641BB5F13E
:10251000200E2FBF02FA0EF3AB40C5F1200E22FAB7
:102520000EFE38BF43EA0E03AA40641C7CE750EA63
:10253000410E14BF52EA430E6FF000014FF4001534
:1025400015EB430F8EBF194615EB410F9DE7B4D82D
:1025500030BDD4F10104B4F120050FDAC4F1200537
:10256000520828BF42F0010210FA05FE01FA05F5F3
:102570007244E2BFE0402843E1400FE0352C9ADC92
:10258000C5F1200452EA400220FA05F218BF42F0D9
:10259000010231FA05F0A1400A43002172F1004224
:1025A00050F1000051EB0C0130BDF0B40246106850
:1025B00095681318506803EB5004C00748BF4D449A
:1025C000A3422DD013F8016B16F0030004BF13F8DB
:1025D000010BC01C31090F2907D113F8011B0F3162
:1025E00003E013F8017B05F8017B401EF9D10029B7
:1025F000E6D013F8010BC6F38106032E08BF13F8CB
:10260000016B00EB0620404228440026B71E8F4293
:102610001EBF10F8017B05F8017B761CF6D1CFE7D1
:10262000F0BC02F10C007047C1F30A5340F21E42A5
:10263000D31A0CDDCA0283F3070342EA505242F078
:102640000042DA4002EBE17282EAE17070476FEA21
:10265000E17203F2E13008B182F0004070472E00D1
:1026600010F0004160B148BF4042B0FA80F29040A3
:10267000D21CC2F5846241EA025202EBD02140052D
:102680007047000000B551EC100B00F003F841EC6E
:10269000100B00BD40F2FF7C0B0D4DD0634566D2A0
:1026A00030B421EA035141F4801103F2FD3C5FEAAA
:1026B0005C0C01D300184941890041EA9071800007
:1026C0004FF440140023E202D50AB1F5100107D4FB
:1026D0006D081DD2091B641900184941491BF7D523
:1026E0006D080AD20919641B00184941491BEFD52E
:1026F0006D08F7D301E0520817D0C01861419B1A4A
:10270000AC4100184941801AA941F4D452080AD0BA
:10271000C01AA1419B186C4100184941801AA94177
:10272000E9D45208F4D15B1C6C4161084FEA3300D4
:1027300001EB0C5130BC704750EA0103FBD030B4C0
:10274000B1FA81F311B9B0FA80F41B190B3BB3F164
:1027500020042FBF00FA04F19940C3F1200420FAAD
:1027600004F438BF21439840D3F101039DE763454A
:1027700014BF50EA410CDEE711F5801FDBD8D943C6
:10278000AFF300807047000010B4020052B2002A7C
:1027900009D50A01234B040064B214F00F0423444A
:1027A00003F8042C04E00A011F4B040064B21A551C
:1027B00010BC704710B50400601EB0F1807F01D3DB
:1027C00001200EE0601E194908600F215FF0FF3004
:1027D000FFF7DAFF00201649086007201549086056
:1027E000002010BD80B5144800684FF47A71B0FB2A
:1027F000F1F0FFF7DFFF002800D0FEE700215FF0D7
:10280000FF30FFF7C1FF01BD0C4A106011680029BD
:10281000FCD1704709490868002802D00868401EAA
:102820000860704718ED00E000E400E014E000E00C
:1028300018E000E010E000E048000020BC99012012
:1028400040F0200070472DE9F14FB0B0924604915E
:102850000DF142013A9A2B9199464A7000200AE004
:102860001AF8011B0498309A90470028049000F051
:1028700044860D98401C0D909AF8000058B1252808
:10288000EED10020002100220790089109920A91C0
:102890000B920C9104E00D9800F031BE41F0010163
:1028A0001AF8010F2028F9D023280CD02B2804D0A7
:1028B0002D2805D0302809D00BE041F00201EFE7C8
:1028C00041F00401ECE741F00801E9E741F01001B3
:1028D000E6E72A280FD1D9F8002052F8040BC9F8EE
:1028E000002000280F9003D540420F9041F00401D2
:1028F0000AF1010A14E00F92DFF8082C0AE00F9B9E
:10290000934205DA03EB830400EB440030380F9068
:102910000AF1010A9AF80000A0F130030A2BEED365
:102920009AF800202E2A03D04FF0FF300E9029E0B5
:102930001AF8010F2A2809D1D9F8002052F8040BFF
:10294000C9F800200E900AF1010A1BE02D280CBFE7
:102950000AF1010A002000220E92DFF8A84B0BE0DA
:1029600040B90E9BA34205DA03EB830502EB450257
:10297000303A0E920AF1010A9AF80020A2F13003CF
:102980000A2BEDD3ADF840100FF67C309AF800100A
:1029900000F0BEFE08B11AF8010B8DF842009DF858
:1029A0004200682805D19AF8001068290CD16220ED
:1029B00006E06C2804BF9AF800106C2904D171203D
:1029C0008DF842000AF1010A12AA06921AF801BB18
:1029D000BBF125002CD01C3800F09781001F022885
:1029E00040F29381133800F0BA84093800F08D81E9
:1029F000801E00F04F85401E00F0FC84401E02281F
:102A000040F28381001F00F0F584401F00F0F28047
:102A1000401E00F0A484401E00F0DA80C01E0ED0DC
:102A2000801E00F09C84C01E00F0998400F03DBD23
:102A30000122252107928DF8481000F042BDD9F8F7
:102A4000000050F8044BC9F80000002C059440F039
:102A5000AB802B994878002800F0A1804FF0FF341C
:102A60000FF6AC2000F060FE241A40F0468500F01E
:102A700028BD01236A4602A9304600F00DFE002859
:102A800040F03B85641EF4D13096079C12AF74B1C0
:102A9000309E17F8011B0498B0470028049000F0FE
:102AA0002C850D98401C641E0D90F2D130960A9C26
:102AB0003021002C8DF800100CDD309E01236A4679
:102AC00002A9304600F0E8FD002840F01685641E9B
:102AD000F4D13096059F089C74B1309E17F8011B05
:102AE0000498B0470028049000F007850D98401C1A
:102AF000641E0D90F2D130960B9C3021002C8DF885
:102B000000100CDD309E01236A4602A9304600F019
:102B1000C3FD002840F0F184641EF4D1309605987E
:102B20000899099C471874B1309E17F8011B049846
:102B3000B0470028049000F0E0840D98401C641E0B
:102B40000D90F2D130960C9C3021002C8DF80010A5
:102B50000CDD309E01236A4602A9304600F09CFD40
:102B6000002840F0CA84641EF4D130969DF84000DD
:102B700041077FF581AE2020002D8DF800007FF702
:102B80007BAE309C01236A4602A9204600F084FDFA
:102B9000002840F0B2846D1EF4D130946CE60FF63C
:102BA0005830059000F08DBC0E9D002D04D52046B8
:102BB00000F0DAFD044608E02A460021204600F035
:102BC000EFFD002814BF041B2C46089400F079BCCC
:102BD000D9F8001051F8040BC9F8001020F00002D9
:102BE000002121F0FF33CDE9022312AC05947821B6
:102BF00000F04CBC2B99487820B14FF0FF340FF611
:102C0000C8202FE79DF84200622860D0682817D0BE
:102C10006A283FD06C2806D0712847D074282CD061
:102C20007A281DD062E0D9F8001051F8040BC9F8D9
:102C30000010002866D14FF0FF340FF6A42011E7F2
:102C4000D9F8001051F8040BC9F8001020B94FF062
:102C5000FF340FF68C2005E70D99018000F031BCA0
:102C6000D9F8001051F8040BC9F80010002849D118
:102C70004FF0FF340FF66820F4E6D9F8001051F851
:102C8000040BC9F8001000283CD14FF0FF340FF6B8
:102C90005020E7E6D9F8001051F8040BC9F80010ED
:102CA00080B94FF0FF340FF63820DBE6D9F800107A
:102CB00051F8040BC9F8001020B94FF0FF340FF69B
:102CC0002020CFE60D9AD317C0E90023F9E3D9F805
:102CD000001051F8040BC9F8001020B94FF0FF3470
:102CE0000FF6FC10BEE60D990170EAE3D9F800106A
:102CF00051F8040BC9F8001020B94FF0FF340FF65B
:102D0000E010AFE60D990160DBE39DF842004C282E
:102D100007BFD9F80010CA1DD9F80000C21D22F063
:102D20000702C9F80020D2E900010832C9F80020E2
:102D3000CDE90201C80F02D007982D210AE0BDF8A5
:102D40004000810702D507982B2103E0C00705D575
:102D50000798202112AA1154401C079012A8079925
:102D60004BF0200300EB010CDDE90201CDE92C0161
:102D7000612BCDF814C021AC0BD00E98002848BFB1
:102D8000062105D404BF4BF02000672801D10121A2
:102D90000E91DDE902014F0047EAD0777E15FF175B
:102DA0004FF0FF32974208BF964210D1090341EA23
:102DB00010510003002908BF002808D0ABF16105BD
:102DC00003211A2D089118D30FF6341110E0DDE914
:102DD00002014A00521512F1010F11D108030FD15F
:102DE000ABF1610503211A2D08911FD30FF61811BD
:102DF0000322604600F000FD63E30FF60011F7E7E1
:102E0000DDE902016A4600F04BFDCDE902014BF01D
:102E10002000612811D1059830220270811C059193
:102E2000BBF1610F0CBF7821582102E00FF6D401ED
:102E3000DEE741700798801C0790DDE9020120F071
:102E4000000231F0004308BF002A02D1002600250D
:102E500042E14BF02008B8F1610F40F092800E99EA
:102E6000002947BF21200190491C0191019FDDE904
:102E70002C017F1C00220023DDE9024500F048FD03
:102E800038BF85F0004500988DF88420001F002F82
:102E900000900DF1850632DD2046294600220023F0
:102EA00000F050FD2BD21C2200F066FD04460D46BA
:102EB000FFF7BAFBFF1F002F804609DDFFF7D0FBAD
:102EC00002460B462046294600F0B2FE04460D4657
:102ED000F01D0721B8F1000F0CDD491E5EBF08F0A0
:102EE0000F0200F8012D4FEA2818F3D502E0002266
:102EF00000F8012D491EFAD5C61D002FCCDC0DF1BE
:102F00008500361A01980DF185048642D8BF3046F7
:102F100000282FD4B04206DA0DF185010A5C082A98
:102F2000A8BF0F2100DA0021024621AB134400E0C4
:102F3000401E13F80159521E8D42F9D00F2904D1B9
:102F40000DF185018B5C5B1C8B54002A04D5009924
:102F5000091D21AC401C0091411E0BD4621813784E
:102F60003033DDB23A2DA4BF5B443A3B491E02F830
:102F70000139F4D50E9A002A40F1AC80411E0E9121
:102F8000A8E00099DFF8002747F29750414391FBF2
:102F9000F2F20092DDE92C45C2F10702002A25F089
:102FA000004504DD2046294600F04AFB0BE0524272
:102FB0000020DFF8D81600F043FB02460B462046FF
:102FC000294600F0A7FE04460D46B8F1660F06BF7D
:102FD000009F0A3706270E983F18142FC8BF1427E2
:102FE00030208DF884000DF18506002F34DD204659
:102FF000294600F0B3FF01460A4606F10803042003
:103000000A26B2FBF6F606EB860EA2EB4E02303233
:1030100003F8012C0A22B6FBF2F202EB820EA6EBB9
:103020004E063036401E03F8026DE9D1083F002FEE
:1030300003F10806D9DD0846FFF7D4F902460B462E
:103040002046294600F0F4FD0022DFF84436FFF761
:10305000D7F904460D46CAE70DF18500361A0DF181
:10306000850404E00098401E761E0090641C2078C1
:103070003028F7D0B8F1660F02D10098401C04E068
:10308000B8F1650F0CBF012000200E994018864250
:10309000B8BF701E00281DD4B04204DA215C342968
:1030A000C8BF392100DC30210246631E9D1800E0B4
:1030B000401E15F80169521E8E42F9D0392902D1FD
:1030C000A15C491CA154002A04D50099491C1C4646
:1030D000401C00910646009D00F052FF406A0778B0
:1030E000DDF8388030B2002802DC01260FF21C64C3
:1030F0004BF02000662808BF6D1C16D0672845D10C
:1031000028B210F1040F47DB404545DA9DF8400036
:103110006D1C010703D430B24045D8BF804628B2A9
:10312000B8EB000848BF4FF000080FFA85FBBBF171
:10313000000F00F3B3800898411C089130220599D4
:103140000A54B8F1000F03DC9DF84000010704D5D4
:103150000898411C089105990F5418EB0B0FB8BF44
:10316000C8F100052DB26842454432B20B90954239
:10317000B8BF2E46059B089836B2099632462146BE
:10318000184400F039FBAD1B0C95D1E0BBF1610F89
:1031900017D14FF0700B19E030B2404504DA9DF8BA
:1031A00040100A0758BF8046B8F1010848BF4FF0E9
:1031B0000008BBF1670F14BF4FF0450B4FF0650BD4
:1031C00004E0BBF1410F08BF4FF0500B0898411CC1
:1031D0000891B8F1000F059914F8012B0A5403DC8B
:1031E0009DF8400001071AD50898411C0891B8F1D4
:1031F000000F05990F5412DD761E30B28045B8BF1E
:1032000046460598089B32B22146184400F0F4FA6D
:10321000089836B230180890A8EB06000B90059875
:103220000899014428B2002881F800B003D42B206B
:103230004870891C04E02D224A700546891C6D42A5
:1032400000202CAA0AE02B460A2593FBF5F505EB96
:103250008504A3EB440302F8013B401C2DB2002D72
:10326000F1DC012806DC4BF02002652A04BF302285
:1032700001F8012B00282CAA08D1302001F8010BFD
:1032800006E0401E135C303301F8013B0028F8DCF7
:10329000059A08981044091A099149E030B229B2F8
:1032A00088421CDA0598089B32B22146184400F087
:1032B000A3FA089936B271180891ABEB0600B8F181
:1032C000000F0B9003DC9DF84000020704D5059821
:1032D00047540999491C0991CDF8308028E0059898
:1032E000089B2AB22146184400F086FA0898761BFB
:1032F0005844B8F1000F089003DC9DF840100A070D
:1033000003D5411C089105990F5430B28045B8BFD0
:1033100046460598089B32B204EB0B01184400F0B6
:103320006BFA089836B230180890A8EB06000B909C
:103330009DF8400000F01400102840F0C280079A69
:1033400008980B99821809988A1882180C980F9976
:103350008018884280F2B580081A0A90B1E09DF882
:103360004200622808D068280ED06A2814D06C2841
:103370001FD0712810D01CE0D9F8001051F8040BB0
:10338000C9F80010C0B21AE0D9F8001051F8040BC7
:10339000C9F8001080B212E0D9F80000C21D22F076
:1033A0000702C9F80020D2E900010832C9F800205C
:1033B00006E0D9F8001051F8040BC9F800100021FC
:1033C000CDE902019DF8400002075AD5DDE902016E
:1033D000002908BF002854D04BF02002782A50D191
:1033E000079812A930230B54401C421C079201F885
:1033F00000B046E09DF84200622808D068280ED050
:103400006A2814D06C281FD0712810D01CE0D9F87D
:10341000001051F8040BC9F8001040B21AE0D9F8B6
:10342000001051F8040BC9F8001000B212E0D9F8EE
:103430000000C21D22F00702C9F80020D2E90001F5
:103440000832C9F8002006E0D9F8001051F8040B42
:10345000C9F80010C117CDE90201002902D507986B
:103460002D210AE0BDF84000810702D507982B21E5
:1034700003E0C00705D50798202112AA1154401C6B
:10348000079012A8079901440591594602A800F037
:103490004DF816E001200790D9F8001051F8040B00
:1034A000C9F800108DF848000BE001202521BBF180
:1034B000000F07908DF8481003D0022107918DF876
:1034C00049B00F9D07980A992D1A08986D1A0B9903
:1034D0002D1A09986D1A0C992D1A9DF840006D1A35
:1034E00041073FF5D2AA2020002D8DF800007FF77C
:1034F000CCAA309E2C46FFF7BCBA4FF0FF3031B05B
:10350000BDE8F08FCBCCCC0C686A6C747A4C0000B0
:103510007072696E74665F733A206261642025730D
:1035200020617267756D656E740000002DE9FC4DB9
:1035300006468846376940466F2808BF082405D0EC
:10354000FFF77EF9782814BF0A241024D6E9000179
:103550003C2582468B46B8F1640F18BFB8F1690F5D
:1035600005D1002903D5DAF1000A6BEB4B0BBBF157
:10357000000F08BFBAF1000F0CD1306B50B9082C06
:103580003AD196F83800010736D530223B2587F826
:103590003B2031E08DF800805046594622460023FA
:1035A00000F0F2FC3032D0B26D1E3A2801950EDAEE
:1035B0007A55504659462246002300F0E5FC8246E3
:1035C0005FEA010B08BFBAF1000F05D108E09DF8D2
:1035D00000001218513AEBE7F06879198842DBD302
:1035E000082C09D196F83800010705D5785D3028F8
:1035F00002D06D1E30207855C5F13C02306BB261AF
:1036000079198242F16008DA318F821A4FF6EF7031
:10361000014031873262BDE8F38D00280ED596F85F
:10362000380000F01400102808D1736B7069316AFB
:103630001B1A5B1A9B1A002BC8BF3362BDE8F38DBF
:103640002DE9D04306460F4614464FF00008DFF838
:10365000449012E0E00707D542464B4630463946D3
:10366000FEF7CEFE06460F464046494642464B46CA
:10367000FEF7C6FE641080468946002CEAD130462B
:103680003946BDE8D0830000A08601000000F03F6D
:1036900084D7974100002440F8B505460E461746EA
:1036A0001C4600205CB117F8011BB068A847B06049
:1036B00030B1F06A401CF0620020641EF3D1F2BD0C
:1036C0004FF0FF30F2BD00007072696E74665F7378
:1036D0003A20256E20646973616C6C6F77656400B5
:1036E0007072696E74663A2062616420256E206192
:1036F0007267756D656E7400000000006E616E008B
:103700004E414E00696E6600494E46003000000092
:10371000C9B202788A421AB11CBF10F8012FF9E72A
:1037200018BF00207047000080B500B906A0054909
:103730000B681BB122220021984701E000F03CFDFC
:10374000222002BDC0990120636F6E73747261699B
:103750006E742068616E646C65723A2062616420E8
:103760006D6573736167650000F10103810704D023
:1037700010F8011B820781B1FAD10268A2F1013170
:10378000914311F0803104BF50F8042FF6E709BAD5
:10379000B1FA81F100EBD100401CC01A7047000063
:1037A000C9B2830706D0521E22D310F8013B9942BA
:1037B000F7D11FE0083A13D302F1040241EA0121D4
:1037C00041EA014150F8043B121F21BF4B40A3F1D5
:1037D000013C2CEA030C1CF0803FF3D0C9B2001F5F
:1037E0000832521E24BF10F8013B91EA030FF8D8AB
:1037F00018BF0120401E704762B38B0708D0521ECD
:1038000011F8013B00F8013B00F024808B07F6D152
:10381000830740F0208000BF103A07D330B4B1E8EE
:103820003810103AA0E83810F9D230BC530724BF42
:10383000B1E80810A0E8081044BF51F8043B40F874
:10384000043BD20724BF31F8022B20F8022B44BFDF
:103850000B7803707047121F17D35B0009D151F822
:10386000043B20F8023B1B0C121F20F8023BF6D24F
:103870000BE051F8043B00F8013B1B0A20F8023B27
:103880001B0C121F00F8013BF3D238BF121D521E51
:1038900024BF11F8013B00F8013BF8D87047000045
:1038A00010B5144600F002F8226010BDC1F30A53AF
:1038B00043B14A0012F5001F28D2A3F2FE32A1EB59
:1038C0000251704750EA410C20D001F0004C31EA1F
:1038D0000C01B1FA81F204BFB0FA80F3D2180B3AAE
:1038E000B2F120032CBF00FA03F1914041EA0C0130
:1038F0003EBFC2F1200C20FA0CF319439040524213
:1039000040F2FD33D21A01EB035170470022704799
:1039100041EA030C50EA4C0C52EA0C0C4FF4001C28
:1039200009D307D01CEB410F9CBF1CEB430F8B420C
:1039300008BF824270471CEB430FFBD8994208BF77
:103940009042704741EA030C50EA4C0C52EA0C0CCE
:103950004FF4001C09D307D01CEB410F9CBF1CEB9C
:10396000430F994208BF904270471CEB410FFBD8B0
:103970008B4208BF82427047124254D440F2FF7C0F
:103980001CEA11530FD0634531D09B1863453CBFEF
:1039900001EB0251704701F0004141EA0C51002057
:1039A000AFF30080704750EA410320D001F0004C93
:1039B00091EA0C011CD0B1FA81F30B3B9A420DD96C
:1039C000D21A994051EA0C01C3F1200C20FA0CFCE8
:1039D00061449840531C40F2FF7CD7E7914041EA94
:1039E0000C01C2F1200C20FA0CF3194390407047EF
:1039F000B0FA80F31533202BE0D3202AEED3203AFF
:103A0000203B9A4209D9D21A00FA03F141EA0C018B
:103A10000020531C40F2FF7CB8E700FA02F141EAB3
:103A20000C0100207047524240F2FF7C1CEA115307
:103A30000DD06345DBD0B2EB030C3CBFA1EB0251D0
:103A400070470CF1010221EA035141F4801150EA60
:103A5000410CCCD001F0004C352A27DC30B481EA8F
:103A60000C01B2F1200309DAC2F12003044601FA85
:103A700003F5D0402843D1409C400CE0C3F1200224
:103A8000450020FA03F418BF44F0010421FA03F0C2
:103A900091400C43002174F1004550F1000051EBBE
:103AA0000C01244230BC7FF47BAF7047614600209C
:103AB00076E7000070B491EA030F4FF0004540F143
:103AC000BF806B40841A71EB030604D26E40001B6A
:103AD000B141121973414FF4001C1CEB410F34BF6C
:103AE0007CEB430683E00C0DA4EB1356362E00F35B
:103AF0007C80012E45EAC32341DC43EA525312BFC6
:103B0000D20292025B08240545EAC12141EA5051E4
:103B1000D2EBC020994125D407D1B0FA80F610FA33
:103B200006F162D00020203608E0B1FA81F6B140FB
:103B3000C6F1200220FA02F21143B0404FEAF474B9
:103B4000B4EB465434F001064FEA74040AD8D6F5B3
:103B50000016760D04F00044F04061FA06F2504081
:103B6000F1404840C00A40EA415021F0004128BFDE
:103B70005FEA500550F1000044EBD12135E0DB0A4B
:103B800045EAC121C90AB6F120050EDD42EA02422A
:103B9000120CC5F1200603FA06F6EB4042EA0605D0
:103BA0006D42984161F100010DE062FA06F5F240C4
:103BB000554063FA06FC82EA0C02F3405A406D421B
:103BC000904161EB030111F4801F05D1641E620571
:103BD00002D06D004041494121F48011430875F144
:103BE000004350F1000041EB045170BC70471CEBE6
:103BF000410F15D223F0004352EA43060BD04FEA9F
:103C00004C0CBCEB410F04D80C0D661E342EB7DDF6
:103C1000EBE7801A994150EA410608BF0021E4E72A
:103C200008BF1CEB430F28BF6FF00001DDE7000069
:103C300070B491EA030F4FF000457FF543AF6B403E
:103C4000841A71EB030603D2001BB14112197341B0
:103C50004FF4001C1CEB410F34BF7CEB430442E0EB
:103C60000C0DA4EB1356352E4FDC45EAC323DB0ABB
:103C700045EAC121C912B6F120050DDD63FA05F64A
:103C8000EB4086EA0305124218BF45F00105C01853
:103C900051F100010CD213E062FA06F5F2405540F2
:103CA000F3415A40B340F3405A408018594107D37A
:103CB00049085FEA30005FEA350528BF45F0010595
:103CC00001F58011420875F1004250F1000041EB0E
:103CD00004514E0016F5001F70BC38BF704700201D
:103CE000090D090570471CEB410F10D252EA43063B
:103CF0000BD0BCEB410F05D80C0DAB43661E342E28
:103D0000B6DD02E0AB438018594170BC704770BC0F
:103D100070470000F0B540F2FF7581EA030C0CF02B
:103D2000004C15EA11541DBF15EA1357AC42AF42BF
:103D3000E5E0BC41C1F31301C3F31303801A9941B9
:103D400043F4801304D2641E00184941801859417D
:103D5000C90241EA5051B1FBF3F603FB1611A2FB75
:103D60000675D7EBC020A94102D2761E80185941B2
:103D7000C90241EA5051B1FBF3FE03FB1E11A2FB45
:103D80000E75D7EBC020A94103D2AEF1010E801809
:103D90005941890241EA9051760546EA8E2EB1FBDF
:103DA000F3F603FB1611A2FB0675D7EB8020A941A1
:103DB00002D2761E80185941C90241EA50514EEA9A
:103DC000060EB1FBF3F603FB1611A2FB0675D7EB4B
:103DD000C020A94102D2761E80185941C90241EA89
:103DE0005051B1FBF3F703FB1711A2FB0735D3EBDF
:103DF000C020A94167F100070CBF004247F001074E
:103E000066F3D5274FEA1E31B80814F5806412DD39
:103E1000BD0775F1004250EB0E5051EB045111F506
:103E2000801F5CBF41EA0C01F0BD4CF07F6141F0A6
:103E3000E0410020F0BDBD076D0840EA0E5041F49E
:103E40008011D4F10104B4F120060ADAC4F120068D
:103E50000200E04001FA06F3E1401843B240154386
:103E60000EE0342C13DCC6F1200445EA40056D0851
:103E700020FA06F2154321FA06F0A1400D43002175
:103E800075F1004250F1000051EB0C01F0BD002033
:103E90005FEA0C01F0BDCFB992185B41B3FA83F72A
:103EA00004BFB2FA82F6BF190B3FB7F120062FBF4D
:103EB00002FA06F3BB40C7F1200622FA06F638BF25
:103EC0003343BA401CB1E419641E33E77F4231F03A
:103ED0000041B1FA81F404BFB0FA80F6A4190B3C9A
:103EE000B4F120062FBF00FA06F1A140C4F120066C
:103EF00020FA06F638BF3143A0403C1B1AE7AC421B
:103F00001ABF05EA1357AF4212E050EA41061CBF40
:103F100052EA4306BFE750EA4107304661461CBFFC
:103F200041EA0551F0BD52EA430C08BFC143F0BD60
:103F300000204FF4001616EB410F98BF16EB430F0D
:103F400008BF16EB410F24BFC14305E016EB430F3A
:103F50000CBF61464CEA0551F0BD0000400D40F237
:103F60001E4C40EAC120BCEB115C40F0004003D481
:103F70008CF30701C84070476FEAE170704700009A
:103F8000004870474C000020BBBBE1B1B2F5803F58
:103F900080F07E80022A1ED98C46B1FBF2F102FB32
:103FA00011C31B0443EA1043B3FBF2FC02FB1C33B6
:103FB00080B240EA0343B3FBF2F002FB103240EA66
:103FC0000C4000237047022A05D98446B0FBF2F06A
:103FD00002FB10C270474AB105D100F00102490846
:103FE0005FEA3000704700220023704700F0E8B815
:103FF0000B000200002100207047904271EB030C7F
:10400000F6D3B3F5803F2FD2F0B5B3FA83F7B1FA08
:1040100081F4A7F10F0E3D1B5340CEF1200602FAAA
:104020000EF2F3415340B5F10F0746D80F3C2C4434
:104030004140C4F12006A040F1414140B1FBF3F6FC
:1040400003FB1611A2FB0645001BA94102D2761EF6
:104050008018594180EA010221FA0EF362FA0EF249
:1040600000215A403046F0BD30B4B1FBF3FC03FBF5
:104070001C11A2FB0C45001BA94103D2ACF1010CA1
:104080008018594130BC02460B46604600217047FB
:10409000B2F1807F65D3F0B5B2FA82F7B1FA81F45C
:1040A000C7F10F063D1B22FA06F307F1110EF2418C
:1040B00020355A40B5F10F07B8D94140C4F1200668
:1040C000A040F1414140B1FBF3FC03FB1C11A2FBFA
:1040D0000C45001BA94103D2BCF1010C80185941C9
:1040E0000F2F12D30F3FC90341EA5041B1FBF3F642
:1040F00003FB1611A2FB0645D4EBC030A94102D246
:10410000761E8018594146EACC3C07B34140C7F1BE
:104110002006B840F1414140B1FBF3F603FB161114
:10412000A2FB0645001BA94102D2761E8018594108
:1041300080EA010221FA0EF3C7F1200462FA0EF2BE
:104140000CFA07F05A402CFA04F13043F0BD80EA33
:10415000010221FA0EF3002162FA0EF260465A4083
:10416000F0BD8C46B1FBF2F102FB11C31B0243EA26
:104170001063B3FBF2FC02FB1C331B024CEA002071
:1041800043EA1063B3FBF2FC02FB1C331B024CEA54
:10419000002043EA1063B3FBF2FC02FB1C331B025A
:1041A0004CEA002043EA1063B3FBF2FC02FB1C3232
:1041B0004CEA002000237047012000F003B8000003
:1041C0007047000080B5AFF30080024A110018204C
:1041D000ABBEFBE72600020038B504002000B0F1BA
:1041E000804F40D0DFF8A815884245D0DFF8A415ED
:1041F00088424AD0DFF8A01588424FD0DFF89C15DE
:10420000884254D0DFF89815884259D0DFF89415C9
:10421000884200F08280DFF89015884200F08680A6
:10422000DFF88815884200F08A80DFF8841588421C
:1042300010D0DFF8801588424BD0DFF87C1588421B
:1042400050D0DFF87815884255D0DFF874158842D1
:104250005AD07DE04FF4106000F06EFD4FF4106016
:1042600000F07EFD74E04FF4006000F065FD4FF457
:10427000006000F075FD6BE040F60105280000F0DD
:104280005BFD280000F06CFD62E040F602052800AE
:1042900000F052FD280000F063FD59E040F60305F0
:1042A000280000F049FD280000F05AFD50E040F6DB
:1042B0000405280000F040FD280000F051FD47E013
:1042C00040F60505280000F037FD280000F048FD05
:1042D0003EE040F60115280000F02EFD280000F019
:1042E0003FFD35E04FF4116000F026FD4FF4116002
:1042F00000F036FD2CE040F61115280000F01CFD02
:10430000280000F02DFD23E040F61215280000F0F3
:1043100013FD280000F024FD1AE040F606052800F1
:1043200000F00AFD280000F01BFD11E040F6070533
:10433000280000F001FD280000F012FD08E040F622
:104340000805280000F0F8FC280000F009FDFFE750
:1043500031BD0021018000214180002181804FF684
:10436000FF7181600021C18000210173704710B48A
:104370000A8810F128031A60DFF83434984212D00A
:10438000B0F1804F0FD0DFF8082490420BD0DFF857
:104390000424904207D0DFF80024904203D0DFF8D5
:1043A000142490420BD1026832F07002026004685B
:1043B0004A881443046004688A88144304608A6845
:1043C00010F12C042260DFF8D42390420BD0DFF8E8
:1043D000D023904207D0026832F440720260046831
:1043E000CA8814430460984203D0DFF8C82390427F
:1043F00003D10A7B10F130031A6010F11402126825
:1044000052F0010210F114031A6010BC70470168E9
:1044100051F0010101607047016851F080010160B5
:10442000704710F12402116070470A00D2B2012ACD
:1044300008D110F14402126852F4004210F1440312
:104440001A6007E010F14402126832F4004210F1E1
:1044500044031A607047002101800021418000213F
:1044600081800021C18000210181002141817047AC
:1044700010B40B009BB2002B07D0022B00F0D980A8
:104480006AD3032B00F042817EE110F120031B6808
:104490005B085B0010F12004236010F118031B6817
:1044A0009B089B0010F11804236010F120031C6886
:1044B00013881C4310F120031C6010F120031B68BB
:1044C00033F0020310F12004236010F120031C6874
:1044D00093881C4310F120031C60B54B984202D016
:1044E000B44B984237D110F120031B6833F004031A
:1044F00010F12004236010F120031C6853881C4332
:1045000010F120031C6010F120031B6833F0080336
:1045100010F12004236010F120031C68D3881C4391
:1045200010F120031C60031D1B6833F48073041D0D
:104530002360031D1C6813891C43031D1C60031D9D
:104540001B6833F40073041D2360031D1C6853892A
:104550001C43031D1C6017E110F120031B6833F09E
:10456000100310F12004236010F118031B6833F4CA
:10457000407310F11804236010F120031B681488A5
:1045800053EA041310F12004236010F120031B6888
:1045900033F0200310F12004236010F120031B6886
:1045A000948853EA041310F120042360804B98424E
:1045B00002D0804B98423BD110F120031B6833F0AE
:1045C000400310F12004236010F120031B6854887D
:1045D00053EA041310F12004236010F120031B6838
:1045E00033F0800310F12004236010F120031B68D6
:1045F000D48853EA041310F120042360031D1B68C0
:1046000033F48063041D2360031D1B68148953EA7F
:104610008403041D2360031D1B6833F40063041D21
:104620002360031D1B68548953EA8403041D23601F
:10463000AAE010F120031B6833F4807310F120040A
:10464000236010F11C031B689B089B0010F11C04E5
:10465000236010F120031B68148853EA042310F12F
:104660002004236010F120031B6833F4007310F161
:104670002004236010F120031B68948853EA04236C
:1046800010F1200423604A4B984202D0494B9842D3
:104690003BD110F120031B6833F4806310F1200438
:1046A000236010F120031B68548853EA042310F19F
:1046B0002004236010F120031B6833F4006310F121
:1046C0002004236010F120031B68D48853EA0423DC
:1046D00010F120042360031D1B6833F48053041D74
:1046E0002360031D1B68148953EA0413041D23600F
:1046F000031D1B6833F40053041D2360031D1B6856
:10470000548953EA0413041D23603DE010F1200393
:104710001B6833F4805310F12004236010F11C0354
:104720001B6833F4407310F11C04236010F1200364
:104730001B68148853EA043310F12004236010F13D
:1047400020031B6833F4005310F12004236010F1A0
:1047500020031B68948853EA043310F1200423607B
:10476000134B984202D0134B98420CD1031D1B6887
:1047700033F48043041D2360031D1B68148953EA2E
:104780008413041D2360FFE710BC70470000000085
:104790000004004000080040000C004000100040F1
:1047A0000014004000180040001C004000200040A1
:1047B000000001400004014000400140004401406D
:1047C0000048014010B40B009BB2002B05D0022B17
:1047D00028D014D3032B37D049E010F118031B68FD
:1047E00033F0700310F11804236010F118031C68F3
:1047F00013009BB21C4310F118031C6037E010F14A
:1048000018031B6833F4E04310F11804236010F11F
:1048100018031B681400A4B253EA042310F118040F
:10482000236024E010F11C031B6833F0700310F1C7
:104830001C04236010F11C031C6813009BB21C4372
:1048400010F11C031C6012E010F11C031B6833F410
:10485000E04310F11C04236010F11C031B681400DA
:10486000A4B253EA042310F11C042360FFE710BC38
:1048700070470B009BB2002B05D0022B0BD006D348
:10488000032B0CD00FE010F134031A600BE010F191
:1048900038031A6007E010F13C031A6003E010F1DE
:1048A00040031A60FFE7704710B40B009BB2002B67
:1048B00005D0022B28D014D3032B37D049E010F1B8
:1048C00018031B6833F0080310F11804236010F17B
:1048D00018031C6813009BB21C4310F118031C60E2
:1048E00037E010F118031B6833F4006310F118046B
:1048F000236010F118031B681400A4B253EA0423C8
:1049000010F11804236024E010F11C031B6833F03D
:10491000080310F11C04236010F11C031C68130031
:104920009BB21C4310F11C031C6012E010F11C032D
:104930001B6833F4006310F11C04236010F11C03A6
:104940001B681400A4B253EA042310F11C04236072
:10495000FFE710BC70470021018001214180002148
:1049600081800021C180704770B504000D001600E1
:10497000280080B2002807D0022800F08B8045D3A1
:10498000032800F0CA800CE114F120000068400800
:10499000400014F12001086014F12000006830F09C
:1049A0000A0014F12001086014F120000168308829
:1049B000014314F12000016014F118000068800820
:1049C000800014F11801086014F118000168708863
:1049D000014314F11800016014F11800006830F070
:1049E000F00014F11801086014F118000068F18853
:1049F00050EA011014F11801086014F12000006859
:104A000050F0010014F120010860CAE014F1200008
:104A1000006830F0100014F12001086014F120004B
:104A2000006830F0A00014F12001086014F12000AB
:104A30000068318850EA011014F12001086014F177
:104A40001800006830F4407014F11801086014F187
:104A500018000068718850EA012014F118010860FC
:104A600014F11800006830F4704014F11801086067
:104A700014F118000068F18850EA013014F11801AF
:104A8000086014F12000006850F0100014F12001BB
:104A9000086086E014F12000006830F4807014F1A2
:104AA0002001086014F12000006830F4206014F147
:104AB0002001086014F120000068318850EA0120CC
:104AC00014F12001086014F11C00006880088000C7
:104AD00014F11C01086014F11C0001687088014386
:104AE00014F11C00016014F11C00006830F0F000AB
:104AF00014F11C01086014F11C000068F18850EAF0
:104B0000011014F11C01086014F12000006850F439
:104B1000807014F12001086043E014F12000006867
:104B200030F4805014F12001086014F12000006876
:104B300030F4005014F12001086014F120000068E6
:104B4000318850EA013014F12001086014F11C0092
:104B5000006830F4407014F11C01086014F11C006E
:104B60000068718850EA012014F11C01086014F1FA
:104B70001C00006830F4704014F11C01086014F14E
:104B80001C000068F18850EA013014F11C01086033
:104B900014F12000006850F4805014F120010860E6
:104BA000FFE7B288290089B2200000F001F870BD4B
:104BB00010B40B009BB2002B05D0022B28D014D3CD
:104BC000032B37D049E010F118031B6833F00C03B6
:104BD00010F11804236010F118031C6813009BB235
:104BE0001C4310F118031C6037E010F118031B6818
:104BF00033F4406310F11804236010F118031B68AC
:104C00001400A4B253EA042310F11804236024E032
:104C100010F11C031B6833F00C0310F11C0423601B
:104C200010F11C031C6813009BB21C4310F11C0301
:104C30001C6012E010F11C031B6833F4406310F198
:104C40001C04236010F11C031B681400A4B253EA77
:104C5000042310F11C042360FFE710BC704730B43C
:104C600010F108042468E408E40010F108052C6041
:104C700010F1080424680C4310F108052C6010F1B1
:104C800018042568164C254010F11804256010F111
:104C90001804256840F20114254310F1180425601A
:104CA00010F12004246834F00A0410F120052C606F
:104CB00010F12004246834F0A00410F120052C60C9
:104CC00010F1200425681400A4B225431C00A4B2EE
:104CD00055EA041510F12004256030BC704700002F
:104CE000FCFCFFFF030013F10C0002680A4013F103
:104CF00010000068084203D0002A01D0012000E023
:104D000000207047CA4310F110031A60704700007A
:104D100010B4DFF89421010009B212EB91110B6875
:104D2000012410F01F018C402343010009B212EB53
:104D30009112136010BC704710B4DFF86C210100B1
:104D400009B212EB91110B68012410F01F018C4085
:104D50002343010009B212EB9112136010BC70479B
:104D600010B4DFF84421010009B212EB91110B6875
:104D7000012410F01F018C40A343010009B212EB83
:104D80009112136010BC70477FF08071884205D18A
:104D9000DFF820110A6802400A6004E0DFF814110D
:104DA0000A6802430A6070472DE9F04F8DB0040095
:104DB000002509A840491022FEF72EFD07A83F490B
:104DC000D1E90023C0E9002305A83D49D1E900232A
:104DD000C0E90023354A1068C0F38101002903D0DF
:104DE000022905D002D329E0364B28E0364B26E0D5
:104DF0002F48036813F03F0304930368C3F3881339
:104E000003930368C3F301435B1C5B0001930068D9
:104E100010F4800002900298B0F5800F02D12A4869
:104E2000009001E0274800900098049BB0FBF3F34A
:104E3000039843430198B3FBF0F300E0214B106863
:104E4000C0F3031009AE16F800801E0036FA08F60B
:104E50001768C7F3822C07AF17F80C90370037FAA2
:104E600009F71268C2F3423E05AA12F80EA03200FA
:104E700032FA0AF2A3465FFA8BFBBBF1000F07D0B0
:104E8000BBF1020F08D005D3BBF1030F06D007E03A
:104E90001D0005E0350003E03D0001E01500FFE7DF
:104EA00028000DB0BDE8F08F0038024008380240FD
:104EB000043802408C380240FC8B00082C8C00081F
:104EC000348C00080024F40000127A001CB5002085
:104ED000ADF8040000F02CFCFCF750FC0020FCF7BF
:104EE00027FD00F02CFD0A20FDF78EFC01A9002013
:104EF00000F0BAFE00283ED1BDF8040041F2243192
:104F0000884229D04FF6E0744FF478400090230097
:104F10002EA200217820FCF7C5FD00944FF47843C1
:104F20002BA200219020FCF7BDFD4FF6FF744FF43B
:104F3000784000902300DFF8302703210820FCF799
:104F4000B1FD4FF4784000902300DFF820270521C1
:104F50000820FCF7A7FDFEE74FF4FC6000901F233C
:104F6000DFF80C2700217820FCF79CFD00F034F8D6
:104F700000F094FE29E04FF6E0744FF47840009082
:104F8000230012A200217820FCF78CFD00944FF43E
:104F9000784310A200219020FCF784FD4FF6FF74A7
:104FA0004FF4784000902300DFF8C8260321082042
:104FB000FCF778FD4FF4784000902300DFF8AC2632
:104FC00005210820FCF76EFDFEE713BD43616D006F
:104FD0004E4700004E43000080B500F03FF8BC2172
:104FE000782000F068FA322000F0AEFA012000F0DC
:104FF00067FB04212C2000F05AFD8021C22000F024
:1050000056FD40F203311C2000F051FD42F62E51B6
:10501000132000F04CFD40F2C711202000F047FDA6
:105020001021242000F043FD03212B2000F03FFD40
:1050300003212F2000F03BFD1A21322000F037FD24
:1050400040F203110F2000F032FD1E21A52000F0D8
:105050002EFD03210C2000F02AFD01BD38B50121F1
:10506000012000F024FD0421022000F020FD4FF477
:10507000F071032000F01BFD4FF43C71042000F0A0
:1050800016FD5B21052000F012FD0A21062000F02C
:105090000EFD4FF4C471072000F009FD40F2BB1172
:1050A000082000F004FD40F2D911092000F0FFFCB7
:1050B0004FF4B2710A2000F0FAFC00210B2000F03E
:1050C000F6FC00210C2000F0F2FC4FF440710D20A2
:1050D00000F0EDFC00210E2000F0E9FC00210F2083
:1050E00000F0E5FC4021102000F0E1FC48F2420114
:1050F000112000F0DCFC2221122000F0D8FC42F646
:105100002E51132000F0D3FC40F60261142000F071
:10511000CEFC40F63261152000F0C9FC42F60204D4
:105120002100162000F0C3FC43F638652900172043
:1051300000F0BDFC2900182000F0B9FC2100192066
:1051400000F0B5FC4FF485611A2000F0B0FC00219E
:105150001B2000F0ACFC40F202311C2000F0A7FC48
:1051600040211D2000F0A3FC00211E2000F09FFC28
:1051700000211F2000F09BFC40F2C731202000F0EE
:1051800096FC2021212000F092FC2021222000F01A
:105190008EFC1021232000F08AFC1B21242000F02B
:1051A00086FC0421262000F082FC0C21272000F040
:1051B0007EFC1021282000F07AFC1021292000F02C
:1051C00076FC20212A2000F072FC04212B2000F024
:1051D0006EFC04212C2000F06AFC04212D2000F03C
:1051E00066FC07212E2000F062FC03212F2000F036
:1051F0005EFC0321302000F05AFC2721312000F012
:1052000056FC1A21322000F052FC0521332000F018
:105210004EFC0321342000F04AFC1021352000F020
:1052200046FC48F21001362000F041FC00213720F6
:1052300000F03DFC0021382000F039FC2721392006
:1052400000F035FC26213A2000F031FC05213B20FE
:1052500000F02DFC03213C2000F029FC802140209F
:1052600000F025FC42F21D31462000F020FC802198
:10527000472000F01CFC2021482000F018FC0221EF
:105280004C2000F014FC0021602000F010FC0021F4
:10529000672000F00CFC00216C2000F008FC0021CD
:1052A000702000F004FC2A21712000F000FC002195
:1052B000722000F0FCFB00217F2000F0F8FB0021B1
:1052C000992000F0F4FB96219A2000F0F0FB4FF4B7
:1052D00096719B2000F0EBFB4FF4E1719C2000F0F5
:1052E000E6FB4FF416719D2000F0E1FB4FF43C719A
:1052F0009E2000F0DCFB00219F2000F0D8FB602105
:10530000A02000F0D4FBC021A12000F0D0FB4FF47E
:105310009071A22000F0CBFB4FF4C071A32000F0ED
:10532000C6FB4FF4F071A42000F0C1FB3A21A52088
:1053300000F0BDFB0221A62000F0B9FB0021A8204F
:1053400000F0B5FB0221A92000F0B1FB0221AA2048
:1053500000F0ADFB4021AB2000F0A9FB0121AC2007
:1053600000F0A5FB4FF4F071AD2000F0A0FB14217C
:10537000AE2000F09CFB0021AF2000F098FB4AF625
:10538000E031B02000F093FB0221B12000F08FFB50
:105390001021B22000F08BFB1021B32000F087FB1E
:1053A0000021B42000F083FB0021B52000F07FFB3A
:1053B0000021B62000F07BFB0021B72000F077FB36
:1053C0001621BF2000F073FB0A21C02000F06FFB04
:1053D00041F6D001C22000F06AFB7F21C32000F01B
:1053E00066FB7F21C42000F062FB7F21C52000F016
:1053F0005EFB0021C62000F05AFB44F21641C72094
:1054000000F055FB44F22141C82000F050FB01217F
:10541000C92000F04CFB0421CA2000F048FB4FF4E7
:10542000F071CB2000F043FB4FF43C71CC2000F036
:105430003EFB5E21CD2000F03AFB2D21CE2000F076
:1054400036FB4FF4EF71CF2000F031FB40F2DF115B
:10545000D02000F02CFB4FF4B271D12000F027FBDC
:105460000121D22000F023FB0021D32000F01FFBFC
:105470000021D42000F01BFB4FF48271D52000F0F6
:1054800016FB0021D62000F012FB0021D72000F0EF
:105490000EFB0021D82000F00AFB0021D92000F0EB
:1054A00006FB0021F02000F002FB4BF6EF61FE202E
:1054B00000F0FDFA31BD70B504000D00002640F289
:1054C000E110210089B28900814204DAA4B2A4006B
:1054D00056F0020608E0210089B24900814203DA51
:1054E000A4B2640056F0010640F2F120290089B20E
:1054F0008900814204DAADB2AD0056F0080608E03A
:10550000290089B24900814203DAADB26D0056F03C
:10551000040656F03006310089B20D2000F0C7FABB
:10552000290089B2042000F0C2FA210089B20320C8
:1055300000F0BDFA0121012000F0B9FA0421022097
:1055400000F0B5FA70BD000010B52DED028B04001F
:105550009FED448A2000C0B2C92802DBF0EE008A29
:1055600074E02000C0B2962810DB2000C0B2FCF727
:1055700039FF414A414BFCF743FF0022404BFEF705
:1055800099FA00F0DBFC08EE900A5FE02000C0B260
:10559000652810DB2000C0B2FCF724FF394A3A4BE3
:1055A000FCF72EFF0022394BFEF784FA00F0C6FC10
:1055B00008EE900A4AE02000C0B2472810DB200025
:1055C000C0B2FCF70FFF324A324BFCF719FF324AE8
:1055D000324BFEF76FFA00F0B1FC08EE900A35E0AE
:1055E0002000C0B2332810DB2000C0B2FCF7FAFE66
:1055F0002B4A2C4BFCF704FF2B4A2C4BFEF75AFA94
:1056000000F09CFC08EE900A20E02000C0B21528B3
:1056100010DB2000C0B2FCF7E5FE254A254BFCF765
:10562000EFFE254A254BFEF745FA00F087FC08EE11
:10563000900A0BE02100C9B27FF09A0241F2C61035
:1056400002FB010100EE101AF8EEC08ABDEEE80A76
:1056500010EE100A010089B2062000F028FABDEC15
:10566000028B10BD000000000C8C0008E88B0008C5
:105670003C8C0008A08B0008F6285C8FC2F5F0BFB8
:1056800000606F401F85EB51B81E01C000D079400B
:10569000E09C11A5BD0112C08FC2F5285C49844071
:1056A000A301BC0512B421C0713D0AD7A3EC8D4003
:1056B000986E1283C02A3FC09A9999999932A04056
:1056C0001CB504000020ADF800006946AF2000F0D2
:1056D000CBFA2000C0B2002819D0BDF8001051F05C
:1056E000030189B2AF2000F0E2F9FA21AD2000F009
:1056F000DEF90121AC2000F0DAF91421AB2000F032
:10570000D6F945F62001B02000F0D1F90FE0BDF840
:1057100000104FF6FC700140AF2000F0C8F91E21C8
:10572000AB2000F0C4F996210B2000F0C0F913BDA6
:1057300018B587B040F60440FFF7EAFA41F21410BA
:10574000FFF7E6FA324C4FF4A04206212000FCF7A6
:10575000E0FA4FF4A043002202212000FCF764FA93
:105760004FF4A043022200212000FCF790FA002011
:1057700001904FF48270009000200290002005906C
:105780004FF4007003900020069000200490214CFC
:105790006946200000F006FC0021200000F025FCF6
:1057A000200000F01DFC00F002F808B010BD18B594
:1057B00089B040F61640FFF7ABFA174C04212000E1
:1057C000FCF7ECFA402006900020029000200390A5
:1057D000002004904FF420400790104800900120D2
:1057E00001905FF4403008906A4604212000FCF7E5
:1057F00050FB04212000FCF7FFFB022204212000C3
:10580000FCF730FC04212000FCF71AFC0AB010BDA4
:105810000010024000500140006402400C50014062
:1058200010B540F60540FFF773FA41F21600FFF796
:105830006FFADFF81844032204212000FCF769FA0C
:105840000323012202212000FCF7EEF903230222A8
:1058500001212000FCF71BFADFF8F4430022DFF8F7
:10586000F413200000F000FC40230022002120005F
:1058700000F08FFC200000F0AFFC4FF480612000AE
:1058800000F097FC200000F0C0FC10BDF8B504004B
:105890000D00DFF8BC6340F20161300000F0BEFC97
:1058A0000028F6D1300000F09CFC4FF4A0613000DD
:1058B00000F0B4FC0028F8D07FF001024021300055
:1058C00000F07EFC40F201573900300000F0A6FCE9
:1058D0000028F7D03900300000F0B0FC40F207514A
:1058E000300000F09BFC0128F8D12900C9B230003B
:1058F00000F081FC40F202573900300000F08EFCCD
:105900000028F7D02178300000F075FC3900300015
:1059100000F084FC0028F9D0641C2178300000F0ED
:105920006AFC3900300000F079FC0028F9D0300022
:1059300000F05CFCC64800688005FBD4F1BD10B5E2
:1059400040F60140FFF7E4F941F21500FFF7E0F9F6
:10595000C14C4FF4407204212000FCF7DAF94FF4F7
:105960004073002202212000FCF75EF94FF44073DF
:10597000022201212000FCF78AF9B84C200000F037
:1059800047FB0022B649200000F06EFBFE230022F8
:105990000021200000F0FDFB200000F01DFC4FF472
:1059A0008061200000F005FC10BD2DE9FC410400E1
:1059B0000D0044F620600090A84E40F201613000D6
:1059C00000F02CFC0028F7D1300000F00AFC44F66F
:1059D000206000904FF4A061300000F01FFC002810
:1059E00006D10098411E00910028F3D1FF205CE011
:1059F0007FF00102B821300000F0E2FB44F62060A5
:105A0000009040F201573900300000F007FC0028F8
:105A100006D10098411E00910028F2D1FF2044E0F9
:105A20003900300000F00AFC44F62060009040F29B
:105A300007573900300000F0F1FB002806D100982C
:105A4000411E00910028F2D1FF202EE02100C9B2B2
:105A5000300000F0D0FB44F62068CDF8008040F222
:105A60000251300000F0DAFB002806D10098411EF8
:105A700000910028F3D1FF2017E02900C9B23000BF
:105A800000F0B9FBCDF800803900300000F0C6FB13
:105A9000002806D10098411E00910028F4D1FF2073
:105AA00003E0300000F0A2FB0020BDE8F68170B5F5
:105AB00004000D00290089B2090AC9B22000C0B251
:105AC000FFF773FF06002900C9B2F020FFF76DFF52
:105AD0003043C0B270BD2DE9FC4104000D0044F616
